{
  "contractName": "VinoShop",
  "abi": [
    {
      "constant": true,
      "inputs": [],
      "name": "name",
      "outputs": [
        {
          "name": "",
          "type": "string"
        }
      ],
      "payable": false,
      "stateMutability": "view",
      "type": "function"
    },
    {
      "constant": true,
      "inputs": [
        {
          "name": "",
          "type": "uint256"
        }
      ],
      "name": "wines",
      "outputs": [
        {
          "name": "vin_ID",
          "type": "uint256"
        },
        {
          "name": "vin_Name",
          "type": "string"
        },
        {
          "name": "vin_Des",
          "type": "string"
        },
        {
          "name": "vin_Price",
          "type": "uint256"
        },
        {
          "name": "inv_Qty",
          "type": "uint256"
        }
      ],
      "payable": false,
      "stateMutability": "view",
      "type": "function"
    },
    {
      "constant": true,
      "inputs": [],
      "name": "cartitemCount",
      "outputs": [
        {
          "name": "",
          "type": "uint256"
        }
      ],
      "payable": false,
      "stateMutability": "view",
      "type": "function"
    },
    {
      "constant": true,
      "inputs": [],
      "name": "wineCount",
      "outputs": [
        {
          "name": "",
          "type": "uint256"
        }
      ],
      "payable": false,
      "stateMutability": "view",
      "type": "function"
    },
    {
      "constant": true,
      "inputs": [],
      "name": "price",
      "outputs": [
        {
          "name": "",
          "type": "uint256"
        }
      ],
      "payable": false,
      "stateMutability": "view",
      "type": "function"
    },
    {
      "constant": true,
      "inputs": [
        {
          "name": "",
          "type": "address"
        },
        {
          "name": "",
          "type": "uint256"
        }
      ],
      "name": "cart",
      "outputs": [
        {
          "name": "wineid",
          "type": "uint256"
        },
        {
          "name": "wineprice",
          "type": "uint256"
        }
      ],
      "payable": false,
      "stateMutability": "view",
      "type": "function"
    },
    {
      "constant": true,
      "inputs": [
        {
          "name": "",
          "type": "address"
        }
      ],
      "name": "subtotal",
      "outputs": [
        {
          "name": "",
          "type": "uint256"
        }
      ],
      "payable": false,
      "stateMutability": "view",
      "type": "function"
    },
    {
      "inputs": [],
      "payable": false,
      "stateMutability": "nonpayable",
      "type": "constructor"
    },
    {
      "anonymous": false,
      "inputs": [
        {
          "indexed": false,
          "name": "name",
          "type": "string"
        },
        {
          "indexed": false,
          "name": "price",
          "type": "uint256"
        },
        {
          "indexed": false,
          "name": "subtotal",
          "type": "uint256"
        },
        {
          "indexed": false,
          "name": "cartItemsCount",
          "type": "uint256"
        }
      ],
      "name": "addItemToCartEvent",
      "type": "event"
    },
    {
      "anonymous": false,
      "inputs": [
        {
          "indexed": false,
          "name": "subtotal",
          "type": "uint256"
        }
      ],
      "name": "checkoutEvent",
      "type": "event"
    },
    {
      "constant": false,
      "inputs": [
        {
          "name": "_cart_item_id",
          "type": "uint256"
        }
      ],
      "name": "addToCart",
      "outputs": [
        {
          "name": "",
          "type": "bool"
        }
      ],
      "payable": false,
      "stateMutability": "nonpayable",
      "type": "function"
    },
    {
      "constant": false,
      "inputs": [],
      "name": "CheckOutCart",
      "outputs": [],
      "payable": true,
      "stateMutability": "payable",
      "type": "function"
    },
    {
      "constant": false,
      "inputs": [],
      "name": "emptyCart",
      "outputs": [],
      "payable": false,
      "stateMutability": "nonpayable",
      "type": "function"
    }
  ],
  "bytecode": "0x60806040523480156200001157600080fd5b50336000806101000a81548173ffffffffffffffffffffffffffffffffffffffff021916908373ffffffffffffffffffffffffffffffffffffffff160217905550620000d36040518060400160405280600f81526020017f4475636b686f726e204d65726c6f7400000000000000000000000000000000008152506040518060400160405280602081526020017f4e6170612056616c6c65792054687265652050616c6d732056696e657961726481525060016103e86200024060201b60201c565b620001386040518060400160405280600881526020017f4b2053797261682000000000000000000000000000000000000000000000000081525060405180606001604052806023815260200162000f276023913960026105dc6200024060201b60201c565b620001b96040518060400160405280600f81526020017f4368c3a27465617520436f7574657400000000000000000000000000000000008152506040518060400160405280600681526020017f426172736163000000000000000000000000000000000000000000000000000081525060026107d06200024060201b60201c565b6200023a6040518060400160405280601081526020017f436173616e6f7661206469204e657269000000000000000000000000000000008152506040518060400160405280601681526020017f4272756e656c6c6f206469204d6f6e74616c63696e6f0000000000000000000081525060016107d06200024060201b60201c565b620003a4565b6005600081548092919060010191905055506040518060a00160405280600554815260200185815260200184815260200183815260200182815250600160006005548152602001908152602001600020600082015181600001556020820151816001019080519060200190620002b8929190620002f5565b506040820151816002019080519060200190620002d7929190620002f5565b50606082015181600301556080820151816004015590505050505050565b828054600181600116156101000203166002900490600052602060002090601f016020900481019282601f106200033857805160ff191683800117855562000369565b8280016001018555821562000369579182015b82811115620003685782518255916020019190600101906200034b565b5b5090506200037891906200037c565b5090565b620003a191905b808211156200039d57600081600090555060010162000383565b5090565b90565b610b7380620003b46000396000f3fe6080604052600436106100915760003560e01c8063702742b011610059578063702742b0146102bb578063a035b1fe1461030e578063a0c8c15614610339578063b564eaaa14610350578063fbcb383a146103c657610091565b806306fdde031461009657806313351db31461012657806324ce03811461025b57806363a2f646146102865780636b9aac9614610290575b600080fd5b3480156100a257600080fd5b506100ab61042b565b6040518080602001828103825283818151815260200191508051906020019080838360005b838110156100eb5780820151818401526020810190506100d0565b50505050905090810190601f1680156101185780820380516001836020036101000a031916815260200191505b509250505060405180910390f35b34801561013257600080fd5b5061015f6004803603602081101561014957600080fd5b81019080803590602001909291905050506104c9565b604051808681526020018060200180602001858152602001848152602001838103835287818151815260200191508051906020019080838360005b838110156101b557808201518184015260208101905061019a565b50505050905090810190601f1680156101e25780820380516001836020036101000a031916815260200191505b50838103825286818151815260200191508051906020019080838360005b8381101561021b578082015181840152602081019050610200565b50505050905090810190601f1680156102485780820380516001836020036101000a031916815260200191505b5097505050505050505060405180910390f35b34801561026757600080fd5b5061027061062f565b6040518082815260200191505060405180910390f35b61028e610635565b005b34801561029c57600080fd5b506102a56106ad565b6040518082815260200191505060405180910390f35b3480156102c757600080fd5b506102f4600480360360208110156102de57600080fd5b81019080803590602001909291905050506106b3565b604051808215151515815260200191505060405180910390f35b34801561031a57600080fd5b50610323610940565b6040518082815260200191505060405180910390f35b34801561034557600080fd5b5061034e610946565b005b34801561035c57600080fd5b506103a96004803603604081101561037357600080fd5b81019080803573ffffffffffffffffffffffffffffffffffffffff169060200190929190803590602001909291905050506109d8565b604051808381526020018281526020019250505060405180910390f35b3480156103d257600080fd5b50610415600480360360208110156103e957600080fd5b81019080803573ffffffffffffffffffffffffffffffffffffffff169060200190929190505050610a16565b6040518082815260200191505060405180910390f35b60078054600181600116156101000203166002900480601f0160208091040260200160405190810160405280929190818152602001828054600181600116156101000203166002900480156104c15780601f10610496576101008083540402835291602001916104c1565b820191906000526020600020905b8154815290600101906020018083116104a457829003601f168201915b505050505081565b6001602052806000526040600020600091509050806000015490806001018054600181600116156101000203166002900480601f01602080910402602001604051908101604052809291908181526020018280546001816001161561010002031660029004801561057b5780601f106105505761010080835404028352916020019161057b565b820191906000526020600020905b81548152906001019060200180831161055e57829003601f168201915b505050505090806002018054600181600116156101000203166002900480601f0160208091040260200160405190810160405280929190818152602001828054600181600116156101000203166002900480156106195780601f106105ee57610100808354040283529160200191610619565b820191906000526020600020905b8154815290600101906020018083116105fc57829003601f168201915b5050505050908060030154908060040154905085565b60065481565b7f147091bba45a2091a4ad3c6db0e072720bda8662479c386b8ed5c89fcfba6203600360003373ffffffffffffffffffffffffffffffffffffffff1673ffffffffffffffffffffffffffffffffffffffff168152602001908152602001600020546040518082815260200191505060405180910390a1565b60055481565b60006006600081548092919060010191905055506106cf610a2e565b6001600084815260200190815260200160002060010160079080546001816001161561010002031660029004610706929190610a48565b5060016000848152602001908152602001600020600301546008819055508281600001818152505060016000848152602001908152602001600020600301548160200181815250508060200151600360003373ffffffffffffffffffffffffffffffffffffffff1673ffffffffffffffffffffffffffffffffffffffff16815260200190815260200160002060008282540192505081905550600260003373ffffffffffffffffffffffffffffffffffffffff1673ffffffffffffffffffffffffffffffffffffffff168152602001908152602001600020819080600181540180825580915050906001820390600052602060002090600202016000909192909190915060008201518160000155602082015181600101555050507fb1c91bec4229db67331e0fa09df55891c62724de47ca7bfb64d5dc9b45621c976007600854600360003373ffffffffffffffffffffffffffffffffffffffff1673ffffffffffffffffffffffffffffffffffffffff1681526020019081526020016000205460065460405180806020018581526020018481526020018381526020018281038252868181546001816001161561010002031660029004815260200191508054600181600116156101000203166002900480156109255780601f106108fa57610100808354040283529160200191610925565b820191906000526020600020905b81548152906001019060200180831161090857829003601f168201915b50509550505050505060405180910390a16001915050919050565b60085481565b600260003373ffffffffffffffffffffffffffffffffffffffff1673ffffffffffffffffffffffffffffffffffffffff16815260200190815260200160002060006109919190610acf565b6000600360003373ffffffffffffffffffffffffffffffffffffffff1673ffffffffffffffffffffffffffffffffffffffff16815260200190815260200160002081905550565b600260205281600052604060002081815481106109f157fe5b9060005260206000209060020201600091509150508060000154908060010154905082565b60036020528060005260406000206000915090505481565b604051806040016040528060008152602001600081525090565b828054600181600116156101000203166002900490600052602060002090601f016020900481019282601f10610a815780548555610abe565b82800160010185558215610abe57600052602060002091601f016020900482015b82811115610abd578254825591600101919060010190610aa2565b5b509050610acb9190610af3565b5090565b5080546000825560020290600052602060002090810190610af09190610b18565b50565b610b1591905b80821115610b11576000816000905550600101610af9565b5090565b90565b610b4491905b80821115610b4057600080820160009055600182016000905550600201610b1e565b5090565b9056fea165627a7a723058202605c511629f259a913a004eea2a7ce0b4426e01d701a66c3126259b662549bf002957616c6c612057616c6c612056616c6c657920506f7765726c696e6520457374617465",
  "source": "pragma solidity ^0.5.8;\n\n/*\n @title VinoShop\n @ dev This is a simple store app with preloaded items. The user can add items to a cart\n    every item added to a cart inccurs a cost. This is no ideal so it is an opportunity for improvement.\n\n  At checkout a transaction will occur, the balance of current account and the wine list items will update.\n  After checkout the cart will be empty.\n\n  TODO: solve issues with checkout and empty cart functions\n  - Metamask keeps trowing expection when calling the payable function CheckOutCart; error = \"rpc error with payload\"\n  - Metamask throws same error, rpc error with payload\n*/\ncontract VinoShop {\n  address owner;\n//@dev modifer allowing only owner of contract\n  modifier onlyOwner(){\n    require(msg.sender == owner,   \"not working\");\n    _;\n  }\n//@dev creating a struct for wine inventory\nstruct WineList{\n    uint vin_ID;\n    string vin_Name;\n    string vin_Des;\n    uint vin_Price;\n    uint inv_Qty;\n  }\n//@dev temporary cart struct\nstruct WineCart{\n  uint wineid;\n  uint wineprice;\n}\n//@dev Event triggers after new item added to cart\nevent addItemToCartEvent(string name, uint price, uint subtotal, uint cartItemsCount);\nevent checkoutEvent (uint subtotal);\n//@dev wines mapping holds the wine list.\n// cart mapping holds cart items for current address\n// subtotal mapping keeps cart subtotal amount before checkout\n// balance mapping to keep track of payments\nmapping (uint => WineList) public wines;\nmapping(address => WineCart[]) public cart;\nmapping(address => uint) public subtotal;\nmapping(address => uint) balance;\n\n// @ dev variable to use in the smart contract\n//winecount is number of items in  inventory\n//cartitemCount is number of in current cart\n//name\nuint public wineCount;\nuint public cartitemCount;\nstring public name;\nuint public price;\n\n\nconstructor() public {\n  owner = msg.sender;\n\n//@dev List of Vino available.\n/*Improvement Prop: Using oracles to retrive list of Vino from\n  distribution center*/\n  addWineItem(\"Duckhorn Merlot\", \"Napa Valley Three Palms Vineyard\",1 wei,1000);\n  addWineItem(\"K Syrah \", \"Walla Walla Valley Powerline Estate\",2 wei,1500);\n  addWineItem(\"Château Coutet\", \"Barsac\",2 wei,2000);\n  addWineItem(\"Casanova di Neri\", \"Brunello di Montalcino\",1 wei,2000);\n}\n\nfunction  addWineItem(string memory _name, string memory _des, uint _price, uint _qty) private {\n  wineCount++;\n  wines[wineCount] = WineList(wineCount, _name, _des, _price, _qty);\n}\n\nfunction addToCart(uint _cart_item_id) public  returns (bool){\n\n  cartitemCount++;\n  //var newCartItem = cart[_cust];\n  WineCart memory newCartItem;\n  name = wines[_cart_item_id].vin_Name;\n  price = wines[_cart_item_id].vin_Price;\n  newCartItem.wineid = _cart_item_id;\n  newCartItem.wineprice = wines[_cart_item_id].vin_Price;\n  subtotal[msg.sender] += newCartItem.wineprice;\n  cart[msg.sender].push(newCartItem);\n\n  emit addItemToCartEvent(name,price,subtotal[msg.sender],cartitemCount);\n\n  return true;\n}\n\n/*\nCheckout function is not finished and metamask keeps throwing Alert: Transancion error.\nFunction SHOULD be paybable but keep getting errors in metamask\nTODO: figure out a way to accept payment for items\n\n\n*/\nfunction CheckOutCart() public payable {\n\n    //wines[id].inv_Qty--  cart[address][x].\n    //require(msg.value == subtotal[msg.sender]);\n    //balance[msg.sender] += msg.value;\n//    subtotal[msg.sender] = 0;\n\n    emit checkoutEvent (subtotal[msg.sender]);\n}\n\n\n// this function should work with Checkout function to reduce item quantity.\nfunction decrementQuantity(uint _dcnum) private {\n  wines[_dcnum].inv_Qty--;\n}\n\n\n//empty cart function does not work\n// Metamask throws error on pay load\nfunction emptyCart() public {\n  delete cart[msg.sender];\n  subtotal[msg.sender] = 0;\n}\n\n}\n",
  "sourcePath": "/Users/henryurbano/Camila/VinoShop-dApp/contracts/VinoShop.sol",
  "compiler": {
    "name": "solc",
    "version": "0.5.8+commit.23d335f2.Emscripten.clang"
  },
  "schemaVersion": "3.0.11",
  "updatedAt": "2019-06-24T10:25:31.412Z",
  "devdoc": {
    "methods": {}
  },
  "userdoc": {
    "methods": {}
  }
}